:100000000C942A000C9447000C9447000C94470071
:100010000C9447000C9447000C9447000C94470044
:100020000C9447000C9447000C9422100C94470049
:100030000C9447000C94A8110C9447000C944700B2
:100040000C944F0C0C9447000C9447000C94470000
:100050000C94470011241FBECFE5D8E0DEBFCDBF12
:1000600011E0A0E6B0E0E2E3F6E202C005900D92F6
:10007000A237B107D9F711E0A2E7B1E001C01D92A4
:10008000A838B107E1F70E9461120C9417130C9481
:100090000000EF92FF920F931F937B018C0120E0F1
:1000A00030E040E05FE40E94790388238CF0C801CF
:1000B000B70120E030E040E05FE40E94C1010E940F
:1000C000D9039B01AC01205030404040504806C04D
:1000D000C801B7010E94D9039B01AC01B901CA0153
:1000E0001F910F91FF90EF900895A0E0B0E0EBE733
:1000F000F0E00C94E012DC012B01FA019C919230AB
:1001000008F439C1EB018881823008F433C194309E
:1001100069F4843009F02FC111969C91119789815F
:10012000981709F428C1AAE6B0E025C1843009F483
:1001300021C18230A9F4923009F01DC19A01AD01AC
:1001400088E0EA010990AE01E90109929E0181501F
:10015000C1F7E201898111969C918923818308C1AD
:10016000923009F407C112962D903C901397EB0141
:100170008A819B811496AD90BD90CD90DC901797AD
:10018000EC80FD800E811F819101281B390BB90184
:1001900037FF04C066277727621B730B6032710537
:1001A0000CF061C0121613066CF537014801062EDB
:1001B00004C096948794779467940A94D2F721E0C8
:1001C00030E040E050E004C0220F331F441F551FB1
:1001D0006A95D2F721503040404050402E213F21B7
:1001E00040235123211531054105510521F021E01E
:1001F00030E040E050E079018A01E628F72808293C
:1002000019293CC0232BD1F1260E371E350146019A
:10021000062E04C096948794779467940A94D2F734
:1002200021E030E040E050E004C0220F331F441FC3
:10023000551F6A95D2F721503040404050402A2146
:100240003B214C215D21211531054105510521F04E
:1002500021E030E040E050E059016A01A628B728CB
:10026000C828D9280BC0821593052CF01C01AA249C
:10027000BB24650103C0EE24FF24870111969C91E5
:10028000D20111968C91981709F445C0992339F041
:10029000A80197012A193B094C095D0906C0A6016E
:1002A00095012E193F09400B510B57FD08C01182D3
:1002B0003382228224833583468357831DC081E0A5
:1002C00081833382228288279927DC01821B930B4A
:1002D000A40BB50B84839583A683B7830DC0220F2F
:1002E000331F441F551F24833583468357838281E0
:1002F000938101979383828324813581468157813D
:10030000DA01C9010197A109B1098F5F9F4FAF4F72
:10031000BF4328F30BC0918333822282EA0CFB1C7B
:100320000C1D1D1DE482F5820683178383E0808304
:10033000248135814681578157FF1AC0C901AA27F8
:1003400097FDA095BA2F81709070A070B0705695EF
:10035000479537952795822B932BA42BB52B848318
:100360009583A683B7838281938101969383828349
:10037000DF0101C0D201CD01CDB7DEB7E2E10C94BF
:10038000FC12A0E2B0E0E7ECF1E00C94EC1269831F
:100390007A838B839C832D833E834F835887E9E048
:1003A000EE2EF12CEC0EFD1ECE010196B7010E943F
:1003B000CA058E010F5E1F4FCE010596B8010E943F
:1003C000CA058A8991E089278A8BC701B801AE01E5
:1003D000475E5F4F0E9475000E94F504A096E6E01C
:1003E0000C940813A0E2B0E0E8EFF1E00C94EC12FA
:1003F00069837A838B839C832D833E834F835887C5
:10040000F9E0EF2EF12CEC0EFD1ECE010196B701A6
:100410000E94CA058E010F5E1F4FCE010596B801DE
:100420000E94CA05C701B801AE01475E5F4F0E9436
:1004300075000E94F504A096E6E00C940813A0E273
:10044000B0E0E5E2F2E00C94E01269837A838B83FA
:100450009C832D833E834F835887CE010196BE0136
:10046000675F7F4F0E94CA05CE010596BE016F5E91
:100470007F4F0E94CA059985923088F08989823021
:10048000C8F0943019F4823051F404C0843029F457
:10049000923081F48AE690E0C6C0923049F420E0C0
:1004A0009A858A89981321E02A87CE010996BBC0D4
:1004B000823049F420E09A858A89981321E02A8BBA
:1004C000CE014196B0C02D843E844F8458886D88FB
:1004D0007E888F88988CEE24FF248701AA24BB2471
:1004E000650140E050E060E070E0E0E0F0E0C10174
:1004F00081709070892BE9F0E60CF71C081D191D1E
:100500009A01AB012A0D3B1D4C1D5D1D80E090E062
:10051000A0E0B0E0E614F7040805190520F481E036
:1005200090E0A0E0B0E0BA01A901480F591F6A1F8E
:100530007B1FAA0CBB1CCC1CDD1C97FE08C081E0F5
:1005400090E0A0E0B0E0A82AB92ACA2ADB2A3196B6
:10055000E032F10549F0660C771C881C991C569412
:10056000479437942794C3CFFA85EA892B893C892D
:100570008B859C85280F391F2E5F3F4F17C0CA01FE
:1005800081709070892B61F016950795F794E79428
:1005900080E090E0A0E0B0E8E82AF92A0A2B1B2BC3
:1005A00076956795579547952F5F3F4F77FDE7CF36
:1005B0000CC0440F551F661F771F17FD4160EE0CDE
:1005C000FF1C001F111F21503040403090E05907A0
:1005D00090E0690790E4790760F32B8F3C8FDB0193
:1005E000CA018F779070A070B07080349105A1051A
:1005F000B10561F447FD0AC0E114F10401051105DC
:1006000029F0405C5F4F6F4F7F4F40781A8EFE1786
:1006100011F081E08A8F4D8F5E8F6F8F78A383E01A
:10062000898FCE0149960E94F504A096E2E10C94D0
:10063000FC12A8E1B0E0EFE1F3E00C94EC12698366
:100640007A838B839C832D833E834F83588789E0F5
:10065000E82EF12CEC0EFD1ECE010196B7010E9492
:10066000CA058E010F5E1F4FCE010596B8010E948C
:10067000CA058985823040F08989823028F0C70117
:10068000B8010E94420601C081E06896E6E00C9441
:100690000813A8E1B0E0EFE4F3E00C94EC126983F6
:1006A0007A838B839C832D833E834F83588789E095
:1006B000E82EF12CEC0EFD1ECE010196B7010E9432
:1006C000CA058E010F5E1F4FCE010596B8010E942C
:1006D000CA058985823040F08989823028F0C701B7
:1006E000B8010E94420601C08FEF6896E6E00C94C4
:1006F0000813A8E1B0E0EFE7F3E00C94EC12698393
:100700007A838B839C832D833E834F83588789E034
:10071000E82EF12CEC0EFD1ECE010196B7010E94D1
:10072000CA058E010F5E1F4FCE010596B8010E94CB
:10073000CA058985823040F08989823028F0C70156
:10074000B8010E94420601C08FEF6896E6E00C9463
:100750000813A8E1B0E0EFEAF3E00C94EC1269832F
:100760007A838B839C832D833E834F83588789E0D4
:10077000E82EF12CEC0EFD1ECE010196B7010E9471
:10078000CA058E010F5E1F4FCE010596B8010E946B
:10079000CA058985823040F08989823028F0C701F6
:1007A000B8010E94420601C081E06896E6E00C9420
:1007B0000813ACE0B0E0EFEDF3E00C94F0126983C5
:1007C0007A838B839C83CE010196BE016B5F7F4F42
:1007D0000E94CA058D81823061F1823050F18430EF
:1007E00021F48E81882351F12EC02F81388537FD69
:1007F00020C06E812F3131051CF06623F9F023C033
:100800008EE190E0821B930B29853A854B855C85B0
:1008100004C056954795379527958A95D2F7662354
:10082000B1F050954095309521953F4F4F4F5F4F18
:100830000EC020E030E040E050E009C02FEF3FEF75
:100840004FEF5FE704C020E030E040E050E8B9013E
:10085000CA012C96E2E00C940C13A8E0B0E0E3E3AC
:10086000F4E00C94E8127B018C016115710581059F
:10087000910519F482E0898360C083E089838EE169
:10088000C82ED12CDC82CB82ED82FE820F831887AA
:10089000C801B7010E94A604FC013197F7FF3BC0D5
:1008A000222733272E1B3F0B57016801022E04C05D
:1008B000D694C794B794A7940A94D2F740E050E036
:1008C00060E070E081E090E0A0E0B0E004C0880F5C
:1008D000991FAA1FBB1F2A95D2F70197A109B10939
:1008E0008E219F21A023B1230097A105B10521F0FE
:1008F00041E050E060E070E04A295B296C297D29E5
:100900004D835E836F8378878EE190E08E1B9F0B13
:100910009C838B8312C0309781F00E2E04C0EE0CA6
:10092000FF1C001F111F0A94D2F7ED82FE820F8375
:100930001887CE1ADF0ADC82CB821A82CE0101969A
:100940000E94F5042896EAE00C940413EF92FF92BB
:100950000F931F937B018C0180E0E81680E0F8067E
:1009600081E0080780E0180788F48FEFE816F104AB
:100970000105110531F028F088E090E0A0E0B0E03A
:1009800017C080E090E0A0E0B0E012C080E0E81680
:1009900080E0F80680E0080781E0180728F088E189
:1009A00090E0A0E0B0E004C080E190E0A0E0B0E022
:1009B00020E230E040E050E0281B390B4A0B5B0B93
:1009C00004C016950795F794E7948A95D2F7F70136
:1009D000EE58FF4F8081281B310941095109C90197
:1009E0001F910F91FF90EF900895DF92EF92FF9289
:1009F0000F931F93FC01E480F58006811781D1805D
:100A00008081823048F480E090E0A0E1B0E0E82A04
:100A1000F92A0A2B1B2BA5C0843009F49FC0823011
:100A200021F4EE24FF24870105C0E114F10401053F
:100A3000110519F4E0E0F0E096C0628173819FEF48
:100A4000623879070CF05BC022E83FEF261B370BBA
:100A50002A3131052CF020E030E040E050E02AC09F
:100A6000B801A701022E04C0769567955795479562
:100A70000A94D2F781E090E0A0E0B0E004C0880FD3
:100A8000991FAA1FBB1F2A95D2F70197A109B10987
:100A90008E219F21A023B1230097A105B10521F04C
:100AA00081E090E0A0E0B0E09A01AB01282B392B67
:100AB0004A2B5B2BDA01C9018F779070A070B07060
:100AC00080349105A105B10539F427FF09C0205CE8
:100AD0003F4F4F4F5F4F04C0215C3F4F4F4F5F4F21
:100AE000E0E0F0E02030A0E03A07A0E04A07A0E410
:100AF0005A0710F0E1E0F0E079018A0127C0603880
:100B0000710564F5FB01E158FF4FD801C7018F77EC
:100B10009070A070B07080349105A105B10539F4D2
:100B2000E7FE0DC080E490E0A0E0B0E004C08FE3F9
:100B300090E0A0E0B0E0E80EF91E0A1F1B1F17FFAF
:100B400005C016950795F794E794319687E01695BA
:100B50000795F794E7948A95D1F705C0EE24FF2412
:100B60008701EFEFF0E06E2F679566276795902F6E
:100B70009F77D794DD24D7948E2F8695492F462BC7
:100B8000582F5D29B701CA011F910F91FF90EF9077
:100B9000DF900895FC01DB01408151812281622FA9
:100BA0006F7770E0221F2227221F9381892F880FE1
:100BB000822B282F30E0991F9927991F11969C931B
:100BC000119721153105A9F54115510561057105EB
:100BD00011F482E037C082E89FEF13969C938E93C6
:100BE00012979A01AB0167E0220F331F441F551F74
:100BF0006A95D1F783E08C930DC0220F331F441FF9
:100C0000551F12968D919C911397019713969C9363
:100C10008E931297203080E0380780E0480780E408
:100C2000580758F314962D933D934D935C93179763
:100C300008952F3F310579F441155105610571057E
:100C400019F484E08C93089564FF03C081E08C93D1
:100C500012C01C9210C02F57304013963C932E9315
:100C6000129783E08C9387E0440F551F661F771F10
:100C70008A95D1F7706414964D935D936D937C9330
:100C8000179708951F93DC01FB019C91923008F4A3
:100C900047C08081823008F443C0943051F41196EB
:100CA0001C91843099F58181682F70E0611B710976
:100CB0003FC0843021F0923031F48230B9F181812B
:100CC000882389F12DC011961C9111978230F1F083
:100CD00081811817D9F412962D913C911397828136
:100CE00093818217930794F028173907BCF0149664
:100CF0008D919D910D90BC91A02D248135814681CF
:100D00005781281739074A075B0718F4112341F068
:100D10000AC082179307A407B50740F4112319F0FE
:100D200061E070E005C06FEF7FEF02C060E070E04F
:100D3000CB011F910895DF93CF93CDB7DEB76D97A9
:100D40000FB6F894DEBF0FBECDBF8D8F83E067E096
:100D500041E00E944C0E83E066E040E00E944C0EB1
:100D600082E06D8D0E94D60C83E065E041E00E9438
:100D70004C0E80E090E0A0E8BFE3898F9A8FAB8FA4
:100D8000BC8F698D7A8D8B8D9C8D20E030E04AEF91
:100D900054E40E941F02DC01CB018D8B9E8BAF8B34
:100DA000B88F6D897E898F89988D20E030E040E88A
:100DB0005FE30E94A90388232CF481E090E09C8BE0
:100DC0008B8B3FC06D897E898F89988D20E03FEFA6
:100DD0004FE757E40E94490318164CF5698D7A8D48
:100DE0008B8D9C8D20E030E040E251E40E941F0298
:100DF000DC01CB01BC01CD010E944900DC01CB012B
:100E00009C8B8B8B0FC088EC90E09A8B898B8989A7
:100E10009A890197F1F79A8B898B8B899C89019725
:100E20009C8B8B8B8B899C89009769F714C06D898B
:100E30007E898F89988D0E944900DC01CB019C8BB3
:100E40008B8B8B899C89988B8F878F85988901974D
:100E5000F1F7988B8F8783E065E040E00E944C0EAD
:100E600080E090E0A0E8BFE38B879C87AD87BE87DA
:100E70006B857C858D859E8520E030E04AEF54E4CB
:100E80000E941F02DC01CB018F839887A987BA8754
:100E90006F81788589859A8520E030E040E85FE3BE
:100EA0000E94A90388232CF481E090E09E838D8327
:100EB0003FC06F81788589859A8520E03FEF4FE7B5
:100EC00057E40E94490318164CF56B857C858D8587
:100ED0009E8520E030E040E251E40E941F02DC01E8
:100EE000CB01BC01CD010E944900DC01CB019E83F6
:100EF0008D830FC088EC90E09C838B838B819C81D9
:100F00000197F1F79C838B838D819E8101979E834E
:100F10008D838D819E81009769F714C06F817885DC
:100F200089859A850E944900DC01CB019E838D83CF
:100F30008D819E819A83898389819A810197F1F7B6
:100F40009A8389836D960FB6F894DEBF0FBECDBF2E
:100F5000CF91DF910895DF93CF93CDB7DEB76D9733
:100F60000FB6F894DEBF0FBECDBF8D8F83E067E074
:100F700040E00E944C0E83E066E040E00E944C0E90
:100F800082E06D8D0E94D60C83E065E041E00E9416
:100F90004C0E80E090E0A0E8BFE3898F9A8FAB8F82
:100FA000BC8F698D7A8D8B8D9C8D20E030E04AEF6F
:100FB00054E40E941F02DC01CB018D8B9E8BAF8B12
:100FC000B88F6D897E898F89988D20E030E040E868
:100FD0005FE30E94A90388232CF481E090E09C8BBE
:100FE0008B8B3FC06D897E898F89988D20E03FEF84
:100FF0004FE757E40E94490318164CF5698D7A8D26
:101000008B8D9C8D20E030E040E251E40E941F0275
:10101000DC01CB01BC01CD010E944900DC01CB0108
:101020009C8B8B8B0FC088EC90E09A8B898B898985
:101030009A890197F1F79A8B898B8B899C89019703
:101040009C8B8B8B8B899C89009769F714C06D8969
:101050007E898F89988D0E944900DC01CB019C8B91
:101060008B8B8B899C89988B8F878F85988901972B
:10107000F1F7988B8F8783E065E040E00E944C0E8B
:1010800080E090E0A0E8BFE38B879C87AD87BE87B8
:101090006B857C858D859E8520E030E04AEF54E4A9
:1010A0000E941F02DC01CB018F839887A987BA8732
:1010B0006F81788589859A8520E030E040E85FE39C
:1010C0000E94A90388232CF481E090E09E838D8305
:1010D0003FC06F81788589859A8520E03FEF4FE793
:1010E00057E40E94490318164CF56B857C858D8565
:1010F0009E8520E030E040E251E40E941F02DC01C6
:10110000CB01BC01CD010E944900DC01CB019E83D3
:101110008D830FC088EC90E09C838B838B819C81B6
:101120000197F1F79C838B838D819E8101979E832C
:101130008D838D819E81009769F714C06F817885BA
:1011400089859A850E944900DC01CB019E838D83AD
:101150008D819E819A83898389819A810197F1F794
:101160009A8389836D960FB6F894DEBF0FBECDBF0C
:10117000CF91DF910895DF93CF93CDB7DEB7AA97D4
:101180000FB6F894DEBF0FBECDBF82E06FEF0E94B6
:10119000950C83E067E041E00E945A0D83E066E031
:1011A00041E00E945A0D83E065E041E00E945A0D43
:1011B00080E090E0A8E4B2E48FA398A7A9A7BAA71B
:1011C0006FA178A589A59AA520E030E04AEF54E404
:1011D0000E941F02DC01CB018BA39CA3ADA3BEA385
:1011E0006BA17CA18DA19EA120E030E040E85FE3EF
:1011F0000E94A90388232CF481E090E09AA389A39C
:101200003FC06BA17CA18DA19EA120E03FEF4FE7E5
:1012100057E40E94490318164CF56FA178A589A5DB
:101220009AA520E030E040E251E40E941F02DC0178
:10123000CB01BC01CD010E944900DC01CB019AA386
:1012400089A30FC088EC90E098A38F8F8F8D98A111
:101250000197F1F798A38F8F89A19AA101979AA37B
:1012600089A389A19AA1009769F714C06BA17CA1F9
:101270008DA19EA10E944900DC01CB019AA389A304
:1012800089A19AA19E8F8D8F8D8D9E8D0197F1F7EB
:101290009E8F8D8F88E30E94AB0780E090E0A0E8EE
:1012A000BFE3898F9A8FAB8FBC8F698D7A8D8B8DC1
:1012B0009C8D20E030E04AEF54E40E941F02DC01E4
:1012C000CB018D8B9E8BAF8BB88F6D897E898F897B
:1012D000988D20E030E040E85FE30E94A903882376
:1012E0002CF481E090E09C8B8B8B3FC06D897E89D4
:1012F0008F89988D20E03FEF4FE757E40E94490324
:1013000018164CF5698D7A8D8B8D9C8D20E030E020
:1013100040E251E40E941F02DC01CB01BC01CD017F
:101320000E944900DC01CB019C8B8B8B0FC088ECA9
:1013300090E09A8B898B89899A890197F1F79A8B2A
:10134000898B8B899C8901979C8B8B8B8B899C8942
:10135000009769F714C06D897E898F89988D0E94E6
:101360004900DC01CB019C8B8B8B8B899C89988BF2
:101370008F878F8598890197F1F7988B8F878CE0FD
:101380000E94AB0780E090E0A0E0B0E48B879C87F0
:10139000AD87BE876B857C858D859E8520E030E09E
:1013A0004AEF54E40E941F02DC01CB018F8398872F
:1013B000A987BA876F81788589859A8520E030E092
:1013C00040E85FE30E94A90388232CF481E090E0C9
:1013D0009E838D833FC06F81788589859A8520E0C3
:1013E0003FEF4FE757E40E94490318164CF56B8511
:1013F0007C858D859E8520E030E040E251E40E94AE
:101400001F02DC01CB01BC01CD010E944900DC01BF
:10141000CB019E838D830FC088EC90E09C838B83EF
:101420008B819C810197F1F79C838B838D819E81B9
:1014300001979E838D838D819E81009769F714C0EB
:101440006F81788589859A850E944900DC01CB01EE
:101450009E838D838D819E819A83898389819A81E0
:101460000197F1F79A83898381E00E94AB07AA96DE
:101470000FB6F894DEBF0FBECDBFCF91DF910895B8
:10148000DF93CF9300D000D0CDB7DEB79C838B83A2
:101490001A8219820FC029813A818B819C81FC01BB
:1014A000E20FF31F80810E949B0689819A81019639
:1014B0009A83898329813A818B819C81FC01E20F87
:1014C000F31F8081882339F70F900F900F900F90B2
:1014D000CF91DF910895EF92FF920F931F93DF93C7
:1014E000CF93CDB7DEB760970FB6F894DEBF0FBECF
:1014F000CDBF6D877E878F87988B6D857E858F8525
:10150000988920E030E040E050E00E94A903882361
:1015100064F48D859E85AF85B889B0588D879E8788
:10152000AF87B88B8DE20E949B066D857E858F8587
:1015300098890E944900DC01CB0189879A87AB8793
:10154000BC876D857E858F85988920E030E040E0FE
:1015500050E00E941903882321F480E30E949B0637
:10156000ECC089859A85AB85BC850097A105B1053E
:1015700019F480E30E949B0681E090E0A0E0B0E0D7
:101580008D839E83AF83B88736C08D819E81AF8166
:10159000B8852AE030E040E050E0BC01CD010E9477
:1015A00093127B018C0189859A85AB85BC852AE0E5
:1015B00030E040E050E0BC01CD010E94BE12DC01F1
:1015C000CB018E0D9F1DA01FB11F8D839E83AF8306
:1015D000B88789859A85AB85BC852AE030E040E0F4
:1015E00050E0BC01CD010E94BE12DA01C901898719
:1015F0009A87AB87BC8789859A85AB85BC85009720
:10160000A105B10511F68D819E81AF81B8858987CD
:101610009A87AB87BC8723C089859A85AB85BC85B3
:101620002AE030E040E050E0BC01CD010E94BE1253
:10163000DC01CB01805D0E949B0689859A85AB8584
:10164000BC852AE030E040E050E0BC01CD010E94C2
:10165000BE12DA01C90189879A87AB87BC87898561
:101660009A85AB85BC8581309105A105B105A1F6B0
:101670006D857E858F8598890E944900DC01CB01AC
:10168000BC01CD010E942D049B01AC016D857E85BE
:101690008F8598890E94C101DC01CB0189839A83DF
:1016A000AB83BC8369817A818B819C8120E030E0AF
:1016B00040E050E00E94490318160CF03EC08EE254
:1016C0000E949B0669817A818B819C8120E030E0B9
:1016D00040E251E40E941F02DC01CB0189839A831E
:1016E000AB83BC8369817A818B819C810E94490094
:1016F000DC01CB01805D0E949B0669817A818B8130
:101700009C8120E030E040E251E40E941F02DC01B5
:10171000CB0189839A83AB83BC8369817A818B8176
:101720009C810E944900DC01CB019AE0692F0E9454
:10173000B212892F805D0E949B0660960FB6F894C6
:10174000DEBF0FBECDBFCF91DF911F910F91FF90F4
:10175000EF900895DF93CF9300D0CDB7DEB78983A4
:101760006A838981882F90E0002496958795079455
:10177000969587950794982F802D982F8A81890FA9
:1017800080580E94AB070F900F90CF91DF91089582
:10179000DF93CF93CDB7DEB781E00E94AB07CF9147
:1017A000DF910895DF93CF93CDB7DEB7E7E2F0E0A6
:1017B0001082A6E2B0E0E6E2F0E0808181608C93E6
:1017C000A6E2B0E0E6E2F0E0808182608C93A6E2DF
:1017D000B0E0E6E2F0E0808184608C93A6E2B0E0C5
:1017E000E6E2F0E0808180688C93A6E2B0E0E6E279
:1017F000F0E0808188608C93A6E2B0E0E6E2F0E061
:10180000808180648C93CF91DF910895DF93CF9393
:1018100000D00F92CDB7DEB79B838A831982E6E2B0
:10182000F0E0808182958F70882F90E081709070B9
:101830008823C9F0E4E2F0E0808191819370EA812D
:10184000FB8191838083A6E2B0E0E6E2F0E0808154
:1018500080618C93A6E2B0E0E6E2F0E080818064F3
:101860008C9381E0898389810F900F900F90CF91A5
:10187000DF910895DF93CF93CDB7DEB7AFE5B0E04A
:10188000EFE5F0E0808180688C93A6E2B0E0E6E2CC
:10189000F0E0808188608C93CF91DF9108951F9252
:1018A0000F920FB60F9211242F933F934F935F9394
:1018B0006F937F938F939F93AF93BF93EF93FF9318
:1018C000DF93CF93CDB7DEB7A6E2B0E0E6E2F0E07B
:1018D000808180648C93E0917201F091730109958D
:1018E000CF91DF91FF91EF91BF91AF919F918F9138
:1018F0007F916F915F914F913F912F910F900FBE0C
:101900000F901F901895DF93CF9300D0CDB7DEB71F
:101910009A83898389819A8190937301809372015C
:101920000F900F90CF91DF910895DF93CF9300D068
:1019300000D0CDB7DEB789836A838981282F30E054
:101940003C832B838B819C8181309105D1F02B814D
:101950003C81223031052CF48B819C81009761F011
:101960001EC02B813C812230310581F08B819C810E
:101970008330910581F013C0EAE3F0E08A8180832F
:101980000EC0E7E3F0E08A81808309C0E4E3F0E081
:101990008A81808304C0E1E3F0E08A8180830F9034
:1019A0000F900F900F90CF91DF910895DF93CF9319
:1019B00000D000D0CDB7DEB789836A838981282F14
:1019C00030E03C832B838B819C8181309105D1F069
:1019D0002B813C81223031052CF48B819C81009736
:1019E00061F01EC02B813C812230310581F08B815A
:1019F0009C818330910581F013C0EBE3F0E08A8194
:101A000080830EC0E8E3F0E08A81808309C0E5E3CB
:101A1000F0E08A81808304C0E2E3F0E08A81808381
:101A20000F900F900F900F90CF91DF910895DF935B
:101A3000CF9300D000D0CDB7DEB789838981282F1E
:101A400030E03C832B838B819C8181309105D1F0E8
:101A50002B813C81223031052CF48B819C810097B5
:101A600061F01FC02B813C812230310581F08B81D8
:101A70009C818330910581F014C0E9E3F0E090810E
:101A80009A8310C0E6E3F0E020812A830BC0E3E3F1
:101A9000F0E030813A8306C0E0E3F0E080818A83A1
:101AA00001C01A828A810F900F900F900F90CF91F2
:101AB000DF910895DF93CF9300D000D00F92CDB780
:101AC000DEB789836A834B838981282F30E03D8389
:101AD0002C838C819D818130910509F447C02C8134
:101AE0003D81223031052CF48C819D81009771F06D
:101AF000CBC02C813D812230310509F467C08C8137
:101B00009D818330910509F491C0BEC08B818130E5
:101B1000A1F4AAE3B0E0EAE3F0E08081482F8A81F3
:101B2000282F30E081E090E0022E02C0880F991F3C
:101B30000A94E2F7842B8C93A7C08B81882309F049
:101B4000A3C0AAE3B0E0EAE3F0E08081482F8A81F5
:101B5000282F30E081E090E0022E02C0880F991F0C
:101B60000A94E2F7809584238C938EC08B81813018
:101B7000A1F4A7E3B0E0E7E3F0E08081482F8A8199
:101B8000282F30E081E090E0022E02C0880F991FDC
:101B90000A94E2F7842B8C9377C08B81882309F019
:101BA00073C0A7E3B0E0E7E3F0E08081482F8A81CB
:101BB000282F30E081E090E0022E02C0880F991FAC
:101BC0000A94E2F7809584238C935EC08B818130E8
:101BD000A1F4A4E3B0E0E4E3F0E08081482F8A813F
:101BE000282F30E081E090E0022E02C0880F991F7C
:101BF0000A94E2F7842B8C9347C08B81882309F0E9
:101C000043C0A4E3B0E0E4E3F0E08081482F8A81A0
:101C1000282F30E081E090E0022E02C0880F991F4B
:101C20000A94E2F7809584238C932EC08B818130B7
:101C3000A1F4A1E3B0E0E1E3F0E08081482F8A81E4
:101C4000282F30E081E090E0022E02C0880F991F1B
:101C50000A94E2F7842B8C9317C08B818823A1F41C
:101C6000A1E3B0E0E1E3F0E08081482F8A81282FF2
:101C700030E081E090E0022E02C0880F991F0A94A4
:101C8000E2F7809584238C930F900F900F900F9024
:101C90000F90CF91DF910895DF93CF9300D000D0C4
:101CA0000F92CDB7DEB789836A834B838981282F52
:101CB00030E03D832C838C819D818130910509F436
:101CC00047C02C813D81223031052CF48C819D81CF
:101CD000009771F0CBC02C813D812230310509F491
:101CE00067C08C819D818330910509F491C0BEC08D
:101CF0008B818130A1F4ABE3B0E0EBE3F0E08081D5
:101D0000482F8A81282F30E081E090E0022E02C027
:101D1000880F991F0A94E2F7842B8C93A7C08B81BC
:101D2000882309F0A3C0ABE3B0E0EBE3F0E08081EF
:101D3000482F8A81282F30E081E090E0022E02C0F7
:101D4000880F991F0A94E2F7809584238C938EC0A4
:101D50008B818130A1F4A8E3B0E0E8E3F0E080817A
:101D6000482F8A81282F30E081E090E0022E02C0C7
:101D7000880F991F0A94E2F7842B8C9377C08B818C
:101D8000882309F073C0A8E3B0E0E8E3F0E08081C5
:101D9000482F8A81282F30E081E090E0022E02C097
:101DA000880F991F0A94E2F7809584238C935EC074
:101DB0008B818130A1F4A5E3B0E0E5E3F0E0808120
:101DC000482F8A81282F30E081E090E0022E02C067
:101DD000880F991F0A94E2F7842B8C9347C08B815C
:101DE000882309F043C0A5E3B0E0E5E3F0E080819B
:101DF000482F8A81282F30E081E090E0022E02C037
:101E0000880F991F0A94E2F7809584238C932EC043
:101E10008B818130A1F4A2E3B0E0E2E3F0E08081C5
:101E2000482F8A81282F30E081E090E0022E02C006
:101E3000880F991F0A94E2F7842B8C9317C08B812B
:101E40008823A1F4A2E3B0E0E2E3F0E08081482F30
:101E50008A81282F30E081E090E0022E02C0880FB6
:101E6000991F0A94E2F7809584238C930F900F902A
:101E70000F900F900F90CF91DF910895DF93CF9344
:101E800000D000D00F92CDB7DEB789836A838981F5
:101E9000282F30E03D832C834C815D8141305105FA
:101EA00049F18C819D818230910534F42C813D81F2
:101EB0002115310561F057C04C815D8142305105DB
:101EC00061F18C819D8183309105D1F14CC0E9E3B2
:101ED000F0E08081282F30E08A81882F90E0A901EE
:101EE00002C0559547958A95E2F7CA01582F51705F
:101EF0005B833AC0E6E3F0E08081282F30E08A81FE
:101F0000882F90E0A90102C0559547958A95E2F780
:101F1000CA01582F51705B8327C0E3E3F0E0808152
:101F2000282F30E08A81882F90E0A90102C05595C2
:101F300047958A95E2F7CA01582F51705B8314C008
:101F4000E0E3F0E08081282F30E08A81882F90E064
:101F5000A90102C0559547958A95E2F7CA01582F05
:101F600051705B8301C01B828B810F900F900F908B
:101F70000F900F90CF91DF910895DF93CF93CDB75E
:101F8000DEB7E0E4F0E086E88083AAE2B0E0EAE2CF
:101F9000F0E080818B7F8C93AAE2B0E0EAE2F0E08F
:101FA000808188608C93AAE2B0E0EAE2F0E0808170
:101FB00080618C93AAE2B0E0EAE2F0E08081806484
:101FC0008C93AAE2B0E0EAE2F0E0808180688C9332
:101FD000ABE2B0E0EBE2F0E0808182608C93E9E27A
:101FE000F0E087E68083E0E4F0E01082CF91DF91BB
:101FF0000895DF93CF930F92CDB7DEB78983ECE2DC
:10200000F0E089818083EBE2F0E080818295869523
:102010008770882F90E0817090700097A1F30F90E7
:10202000CF91DF910895DF93CF93CDB7DEB7EBE289
:10203000F0E080818823DCF7ECE2F0E08081CF9152
:10204000DF9108951F920F920FB60F9211242F93D4
:102050003F938F939F93AF93BF93EF93FF93DF9340
:10206000CF9300D0CDB7DEB7809174019091750108
:10207000A0917601B09177010196A11DB11D8093C9
:10208000740190937501A0937601B09377018091CC
:10209000740190917501A0917601B09177018E3114
:1020A0009105A105B10551F5E7E2F0E08081282F07
:1020B00030E03A83298389819A818130910571F0DA
:1020C00029813A812230310571F089819A81009706
:1020D00069F4E7E2F0E081E0808308C0E7E2F0E045
:1020E00082E0808303C0E7E2F0E010821092740186
:1020F0001092750110927601109277010F900F9057
:10210000CF91DF91FF91EF91BF91AF919F918F910F
:102110003F912F910F900FBE0F901F901895DF9356
:10212000CF9300D0CDB7DEB7E4E2F0E080819181BB
:10213000CC01A0E0B0E09370A070B07080938401F7
:1021400090938501A0938601B0938701E7E2F0E0C8
:102150008081282F30E03A83298389819A818130D8
:10216000910509F44AC029813A812230310509F4E8
:1021700094C089819A81009709F0E5C0809184011B
:1021800090918501A0918601B091870128E833E103
:1021900040E050E0BC01CD010E949312DC01CB0174
:1021A0002FEF33E040E050E0BC01CD010E94BE12B1
:1021B000DA01C9018093800190938101A09382018B
:1021C000B093830180E060E00E94AA0B80E690E07B
:1021D0000E94400A8091800190918101A09182012A
:1021E000B0918301BC01CD010E942D04DC01CB0123
:1021F000BC01CD010E946B0AA6C080918401909120
:102200008501A0918601B091870128E833E140E083
:1022100050E0BC01CD010E949312DC01CB012FEFF5
:1022200033E040E050E0BC01CD010E94BE12DA0173
:10223000C90180937C0190937D01A0937E01B093AE
:102240007F018091800190918101A0918201B091E4
:102250008301813C22E1920720E0A20720E0B2073F
:10226000B0F080917C0190917D01A0917E01B091B0
:102270007F01893B3BE0930730E0A30730E0B307E1
:1022800030F081E062E041E00E944C0E5CC081E0F1
:1022900062E040E00E944C0E56C080918401909113
:1022A0008501A0918601B091870124EF31E040E0E3
:1022B00050E0BC01CD010E949312DC01CB012FEF55
:1022C00033E040E050E0BC01CD010E94BE12DA01D3
:1022D000C9018093780190937901A0937A01B0931A
:1022E0007B0181E060E00E94AA0B85E690E00E94FD
:1022F000400A8091780190917901A0917A01B09182
:102300007B01BC01CD010E942D04DC01CB01BC018D
:10231000CD010E946B0A8091780190917901A09182
:102320007A01B0917B0185319105A105B10530F0AD
:1023300081E065E041E00E944C0E05C081E065E06F
:1023400040E00E944C0E0F900F90CF91DF910895C6
:102350001F920F920FB60F9211242F933F934F931A
:102360005F936F937F938F939F93AF93BF93EF93FD
:10237000FF93DF93CF9300D00F92CDB7DEB7ECE29F
:10238000F0E0808189838981282F30E03B832A8394
:102390008A819B8182339105E1F02A813B8123333D
:1023A000310534F48A819B818133910561F022C02B
:1023B0002A813B812333310591F08A819B818433CB
:1023C000910599F017C081E060E041E00E944C0E59
:1023D00011C081E061E041E00E944C0E0BC081E041
:1023E00060E040E00E944C0E05C081E061E040E00A
:1023F0000E944C0EABE2B0E0EBE2F0E080818F7720
:102400008C930F900F900F90CF91DF91FF91EF91F0
:10241000BF91AF919F918F917F916F915F914F91FC
:102420003F912F910F900FBE0F901F901895DF9343
:10243000CF93CDB7DEB7A3E5B0E0E3E5F0E0808170
:1024400088608C93A3E5B0E0E3E5F0E080818F7BCA
:102450008C93A3E5B0E0E3E5F0E0808181608C93AC
:10246000A3E5B0E0E3E5F0E080818D7F8C93A3E508
:10247000B0E0E3E5F0E0808184608C93A3E5B0E018
:10248000E3E5F0E0808180618C93A3E5B0E0E3E5D3
:10249000F0E080818F7D8C93A9E5B0E0E9E5F0E084
:1024A000808182608C93ECE5F0E08FEF8083AFE574
:1024B000B0E0EFE5F0E0808180688C93CF91DF9110
:1024C0000895DF93CF93CDB7DEB70E94BB080E947B
:1024D000D20B0E943A0C0E9417120E94BD0F81E09D
:1024E0006FEF0E94950C80E067E040E00E945A0D7B
:1024F00080E067E041E00E944C0E8FE890E10E948E
:10250000830C80E067E00E943E0F882331F081E079
:1025100063E040E00E944C0EF0CF81E063E041E0D8
:102520000E944C0EEACF629FD001739FF001829F00
:10253000E00DF11D649FE00DF11D929FF00D839F52
:10254000F00D749FF00D659FF00D9927729FB00DEF
:10255000E11DF91F639FB00DE11DF91FBD01CF0102
:1025600011240895991B79E004C0991F961708F06B
:10257000961B881F7A95C9F780950895A1E21A2EB7
:10258000AA1BBB1BFD010DC0AA1FBB1FEE1FFF1F17
:10259000A217B307E407F50720F0A21BB30BE40B67
:1025A000F50B661F771F881F991F1A9469F76095AE
:1025B0007095809590959B01AC01BD01CF01089568
:1025C0002F923F924F925F926F927F928F929F9243
:1025D000AF92BF92CF92DF92EF92FF920F931F9331
:1025E000CF93DF93CDB7DEB7CA1BDB0B0FB6F894E2
:1025F000DEBF0FBECDBF09942A88398848885F8422
:102600006E847D848C849B84AA84B984C884DF8092
:10261000EE80FD800C811B81AA81B981CE0FD11D76
:102620000FB6F894DEBF0FBECDBFED010895F8944C
:02263000FFCFDA
:102632004C44523D00746D703D00000000000000EB
:10264200000000010202030303030404040404045F
:10265200040405050505050505050505050505052A
:10266200050506060606060606060606060606060A
:1026720006060606060606060606060606060606F8
:1026820006060707070707070707070707070707DA
:1026920007070707070707070707070707070707C8
:1026A20007070707070707070707070707070707B8
:1026B20007070707070707070707070707070707A8
:1026C200070708080808080808080808080808088A
:1026D2000808080808080808080808080808080878
:1026E2000808080808080808080808080808080868
:1026F2000808080808080808080808080808080858
:102702000808080808080808080808080808080847
:102712000808080808080808080808080808080837
:102722000808080808080808080808080808080827
:102732000808080808080808080808080808080817
:02274200080885
:00000001FF
