:100000000C942A000C9447000C9447000C94470071
:100010000C9447000C9447000C9447000C94470044
:100020000C9447000C9447000C94000B0C94470070
:100030000C9447000C94ED090C9447000C94470075
:100040000C94B9060C9447000C9447000C9447009C
:100050000C94470011241FBECFE5D8E0DEBFCDBF12
:1000600011E0A0E6B0E0E0ECF7E102C005900D92EF
:10007000A237B107D9F711E0A2E7B1E001C01D92A4
:10008000A838B107E1F70E94DA090C94DE0B0C9452
:100090000000EF92FF920F931F937B018C0120E0F1
:1000A00030E040E05FE40E94790388238CF0C801CF
:1000B000B70120E030E040E05FE40E94C1010E940F
:1000C000D9039B01AC01205030404040504806C04D
:1000D000C801B7010E94D9039B01AC01B901CA0153
:1000E0001F910F91FF90EF900895A0E0B0E0EBE733
:1000F000F0E00C94A70BDC012B01FA019C919230EB
:1001000008F439C1EB018881823008F433C194309E
:1001100069F4843009F02FC111969C91119789815F
:10012000981709F428C1AAE6B0E025C1843009F483
:1001300021C18230A9F4923009F01DC19A01AD01AC
:1001400088E0EA010990AE01E90109929E0181501F
:10015000C1F7E201898111969C918923818308C1AD
:10016000923009F407C112962D903C901397EB0141
:100170008A819B811496AD90BD90CD90DC901797AD
:10018000EC80FD800E811F819101281B390BB90184
:1001900037FF04C066277727621B730B6032710537
:1001A0000CF061C0121613066CF537014801062EDB
:1001B00004C096948794779467940A94D2F721E0C8
:1001C00030E040E050E004C0220F331F441F551FB1
:1001D0006A95D2F721503040404050402E213F21B7
:1001E00040235123211531054105510521F021E01E
:1001F00030E040E050E079018A01E628F72808293C
:1002000019293CC0232BD1F1260E371E350146019A
:10021000062E04C096948794779467940A94D2F734
:1002200021E030E040E050E004C0220F331F441FC3
:10023000551F6A95D2F721503040404050402A2146
:100240003B214C215D21211531054105510521F04E
:1002500021E030E040E050E059016A01A628B728CB
:10026000C828D9280BC0821593052CF01C01AA249C
:10027000BB24650103C0EE24FF24870111969C91E5
:10028000D20111968C91981709F445C0992339F041
:10029000A80197012A193B094C095D0906C0A6016E
:1002A00095012E193F09400B510B57FD08C01182D3
:1002B0003382228224833583468357831DC081E0A5
:1002C00081833382228288279927DC01821B930B4A
:1002D000A40BB50B84839583A683B7830DC0220F2F
:1002E000331F441F551F24833583468357838281E0
:1002F000938101979383828324813581468157813D
:10030000DA01C9010197A109B1098F5F9F4FAF4F72
:10031000BF4328F30BC0918333822282EA0CFB1C7B
:100320000C1D1D1DE482F5820683178383E0808304
:10033000248135814681578157FF1AC0C901AA27F8
:1003400097FDA095BA2F81709070A070B0705695EF
:10035000479537952795822B932BA42BB52B848318
:100360009583A683B7838281938101969383828349
:10037000DF0101C0D201CD01CDB7DEB7E2E10C94BF
:10038000C30BA0E2B0E0E7ECF1E00C94B30B69839F
:100390007A838B839C832D833E834F835887E9E048
:1003A000EE2EF12CEC0EFD1ECE010196B7010E943F
:1003B000CA058E010F5E1F4FCE010596B8010E943F
:1003C000CA058A8991E089278A8BC701B801AE01E5
:1003D000475E5F4F0E9475000E94F504A096E6E01C
:1003E0000C94CF0BA0E2B0E0E8EFF1E00C94B30B7B
:1003F00069837A838B839C832D833E834F835887C5
:10040000F9E0EF2EF12CEC0EFD1ECE010196B701A6
:100410000E94CA058E010F5E1F4FCE010596B801DE
:100420000E94CA05C701B801AE01475E5F4F0E9436
:1004300075000E94F504A096E6E00C94CF0BA0E2B4
:10044000B0E0E5E2F2E00C94A70B69837A838B833A
:100450009C832D833E834F835887CE010196BE0136
:10046000675F7F4F0E94CA05CE010596BE016F5E91
:100470007F4F0E94CA059985923088F08989823021
:10048000C8F0943019F4823051F404C0843029F457
:10049000923081F48AE690E0C6C0923049F420E0C0
:1004A0009A858A89981321E02A87CE010996BBC0D4
:1004B000823049F420E09A858A89981321E02A8BBA
:1004C000CE014196B0C02D843E844F8458886D88FB
:1004D0007E888F88988CEE24FF248701AA24BB2471
:1004E000650140E050E060E070E0E0E0F0E0C10174
:1004F00081709070892BE9F0E60CF71C081D191D1E
:100500009A01AB012A0D3B1D4C1D5D1D80E090E062
:10051000A0E0B0E0E614F7040805190520F481E036
:1005200090E0A0E0B0E0BA01A901480F591F6A1F8E
:100530007B1FAA0CBB1CCC1CDD1C97FE08C081E0F5
:1005400090E0A0E0B0E0A82AB92ACA2ADB2A3196B6
:10055000E032F10549F0660C771C881C991C569412
:10056000479437942794C3CFFA85EA892B893C892D
:100570008B859C85280F391F2E5F3F4F17C0CA01FE
:1005800081709070892B61F016950795F794E79428
:1005900080E090E0A0E0B0E8E82AF92A0A2B1B2BC3
:1005A00076956795579547952F5F3F4F77FDE7CF36
:1005B0000CC0440F551F661F771F17FD4160EE0CDE
:1005C000FF1C001F111F21503040403090E05907A0
:1005D00090E0690790E4790760F32B8F3C8FDB0193
:1005E000CA018F779070A070B07080349105A1051A
:1005F000B10561F447FD0AC0E114F10401051105DC
:1006000029F0405C5F4F6F4F7F4F40781A8EFE1786
:1006100011F081E08A8F4D8F5E8F6F8F78A383E01A
:10062000898FCE0149960E94F504A096E2E10C94D0
:10063000C30BA8E1B0E0EFE1F3E00C94B30B6983E6
:100640007A838B839C832D833E834F83588789E0F5
:10065000E82EF12CEC0EFD1ECE010196B7010E9492
:10066000CA058E010F5E1F4FCE010596B8010E948C
:10067000CA058985823040F08989823028F0C70117
:10068000B8010E94420601C081E06896E6E00C9441
:10069000CF0BA8E1B0E0EFE4F3E00C94B30B698377
:1006A0007A838B839C832D833E834F83588789E095
:1006B000E82EF12CEC0EFD1ECE010196B7010E9432
:1006C000CA058E010F5E1F4FCE010596B8010E942C
:1006D000CA058985823040F08989823028F0C701B7
:1006E000B8010E94420601C08FEF6896E6E00C94C4
:1006F000CF0BA8E1B0E0EFE7F3E00C94B30B698314
:100700007A838B839C832D833E834F83588789E034
:10071000E82EF12CEC0EFD1ECE010196B7010E94D1
:10072000CA058E010F5E1F4FCE010596B8010E94CB
:10073000CA058985823040F08989823028F0C70156
:10074000B8010E94420601C08FEF6896E6E00C9463
:10075000CF0BA8E1B0E0EFEAF3E00C94B30B6983B0
:100760007A838B839C832D833E834F83588789E0D4
:10077000E82EF12CEC0EFD1ECE010196B7010E9471
:10078000CA058E010F5E1F4FCE010596B8010E946B
:10079000CA058985823040F08989823028F0C701F6
:1007A000B8010E94420601C081E06896E6E00C9420
:1007B000CF0BACE0B0E0EFEDF3E00C94B70B698346
:1007C0007A838B839C83CE010196BE016B5F7F4F42
:1007D0000E94CA058D81823061F1823050F18430EF
:1007E00021F48E81882351F12EC02F81388537FD69
:1007F00020C06E812F3131051CF06623F9F023C033
:100800008EE190E0821B930B29853A854B855C85B0
:1008100004C056954795379527958A95D2F7662354
:10082000B1F050954095309521953F4F4F4F5F4F18
:100830000EC020E030E040E050E009C02FEF3FEF75
:100840004FEF5FE704C020E030E040E050E8B9013E
:10085000CA012C96E2E00C94D30BA8E0B0E0E3E3ED
:10086000F4E00C94AF0B7B018C01611571058105DF
:10087000910519F482E0898360C083E089838EE169
:10088000C82ED12CDC82CB82ED82FE820F831887AA
:10089000C801B7010E94A604FC013197F7FF3BC0D5
:1008A000222733272E1B3F0B57016801022E04C05D
:1008B000D694C794B794A7940A94D2F740E050E036
:1008C00060E070E081E090E0A0E0B0E004C0880F5C
:1008D000991FAA1FBB1F2A95D2F70197A109B10939
:1008E0008E219F21A023B1230097A105B10521F0FE
:1008F00041E050E060E070E04A295B296C297D29E5
:100900004D835E836F8378878EE190E08E1B9F0B13
:100910009C838B8312C0309781F00E2E04C0EE0CA6
:10092000FF1C001F111F0A94D2F7ED82FE820F8375
:100930001887CE1ADF0ADC82CB821A82CE0101969A
:100940000E94F5042896EAE00C94CB0BEF92FF92FC
:100950000F931F937B018C0180E0E81680E0F8067E
:1009600081E0080780E0180788F48FEFE816F104AB
:100970000105110531F028F088E090E0A0E0B0E03A
:1009800017C080E090E0A0E0B0E012C080E0E81680
:1009900080E0F80680E0080781E0180728F088E189
:1009A00090E0A0E0B0E004C080E190E0A0E0B0E022
:1009B00020E230E040E050E0281B390B4A0B5B0B93
:1009C00004C016950795F794E7948A95D2F7F70136
:1009D000EE58FF4F8081281B310941095109C90197
:1009E0001F910F91FF90EF900895DF92EF92FF9289
:1009F0000F931F93FC01E480F58006811781D1805D
:100A00008081823048F480E090E0A0E1B0E0E82A04
:100A1000F92A0A2B1B2BA5C0843009F49FC0823011
:100A200021F4EE24FF24870105C0E114F10401053F
:100A3000110519F4E0E0F0E096C0628173819FEF48
:100A4000623879070CF05BC022E83FEF261B370BBA
:100A50002A3131052CF020E030E040E050E02AC09F
:100A6000B801A701022E04C0769567955795479562
:100A70000A94D2F781E090E0A0E0B0E004C0880FD3
:100A8000991FAA1FBB1F2A95D2F70197A109B10987
:100A90008E219F21A023B1230097A105B10521F04C
:100AA00081E090E0A0E0B0E09A01AB01282B392B67
:100AB0004A2B5B2BDA01C9018F779070A070B07060
:100AC00080349105A105B10539F427FF09C0205CE8
:100AD0003F4F4F4F5F4F04C0215C3F4F4F4F5F4F21
:100AE000E0E0F0E02030A0E03A07A0E04A07A0E410
:100AF0005A0710F0E1E0F0E079018A0127C0603880
:100B0000710564F5FB01E158FF4FD801C7018F77EC
:100B10009070A070B07080349105A105B10539F4D2
:100B2000E7FE0DC080E490E0A0E0B0E004C08FE3F9
:100B300090E0A0E0B0E0E80EF91E0A1F1B1F17FFAF
:100B400005C016950795F794E794319687E01695BA
:100B50000795F794E7948A95D1F705C0EE24FF2412
:100B60008701EFEFF0E06E2F679566276795902F6E
:100B70009F77D794DD24D7948E2F8695492F462BC7
:100B8000582F5D29B701CA011F910F91FF90EF9077
:100B9000DF900895FC01DB01408151812281622FA9
:100BA0006F7770E0221F2227221F9381892F880FE1
:100BB000822B282F30E0991F9927991F11969C931B
:100BC000119721153105A9F54115510561057105EB
:100BD00011F482E037C082E89FEF13969C938E93C6
:100BE00012979A01AB0167E0220F331F441F551F74
:100BF0006A95D1F783E08C930DC0220F331F441FF9
:100C0000551F12968D919C911397019713969C9363
:100C10008E931297203080E0380780E0480780E408
:100C2000580758F314962D933D934D935C93179763
:100C300008952F3F310579F441155105610571057E
:100C400019F484E08C93089564FF03C081E08C93D1
:100C500012C01C9210C02F57304013963C932E9315
:100C6000129783E08C9387E0440F551F661F771F10
:100C70008A95D1F7706414964D935D936D937C9330
:100C8000179708951F93DC01FB019C91923008F4A3
:100C900047C08081823008F443C0943051F41196EB
:100CA0001C91843099F58181682F70E0611B710976
:100CB0003FC0843021F0923031F48230B9F181812B
:100CC000882389F12DC011961C9111978230F1F083
:100CD00081811817D9F412962D913C911397828136
:100CE00093818217930794F028173907BCF0149664
:100CF0008D919D910D90BC91A02D248135814681CF
:100D00005781281739074A075B0718F4112341F068
:100D10000AC082179307A407B50740F4112319F0FE
:100D200061E070E005C06FEF7FEF02C060E070E04F
:100D3000CB011F91089517B8309A319A329A379A99
:100D4000339A369A0895FC0186B182958F7080FDA2
:100D500002C080E0089584B195B19370918380833F
:100D6000349A369A81E008958FB780688FBF339A9E
:100D700008951F920F920FB60F9211242F933F9355
:100D80004F935F936F937F938F939F93AF93BF9393
:100D9000EF93FF93369AE0917201F09173010995F8
:100DA000FF91EF91BF91AF919F918F917F916F9143
:100DB0005F914F913F912F910F900FBE0F901F9019
:100DC000189590937301809372010895813049F0D2
:100DD000813028F0823039F0833041F406C06ABB9C
:100DE000089567BB089564BB089561BB0895813081
:100DF00049F0813028F0823039F0833041F406C068
:100E00006BBB089568BB089565BB089562BB0895E8
:100E1000813051F0813030F0823041F0833041F048
:100E200080E0089589B3089586B3089583B3089543
:100E300080B30895813029F1813038F0823009F48F
:100E40003CC0833009F06EC053C0413059F42AB31E
:100E500081E090E002C0880F991F6A95E2F7282B85
:100E60002ABB0895442309F05DC02AB381E090E0D5
:100E700002C0880F991F6A95E2F7809582238ABB8A
:100E80000895413059F427B381E090E002C0880F03
:100E9000991F6A95E2F7282B27BB0895442309F090
:100EA00041C027B381E090E002C0880F991F6A9586
:100EB000E2F78095822387BB0895413059F424B32B
:100EC00081E090E002C0880F991F6A95E2F7282B15
:100ED00024BB0895442331F524B381E090E002C09F
:100EE000880F991F6A95E2F78095822384BB089545
:100EF000413059F421B381E090E002C0880F991F7E
:100F00006A95E2F7282B21BB0895442359F421B3B5
:100F100081E090E002C0880F991F6A95E2F7809502
:100F2000822381BB0895813029F1813038F08230ED
:100F300009F43CC0833009F06EC053C0413059F40D
:100F40002BB381E090E002C0880F991F6A95E2F709
:100F5000282B2BBB0895442309F05DC02BB381E0FF
:100F600090E002C0880F991F6A95E2F7809582236E
:100F70008BBB0895413059F428B381E090E002C062
:100F8000880F991F6A95E2F7282B28BB0895442300
:100F900009F041C028B381E090E002C0880F991F9A
:100FA0006A95E2F78095822388BB0895413059F411
:100FB00025B381E090E002C0880F991F6A95E2F79F
:100FC000282B25BB0895442331F525B381E090E01B
:100FD00002C0880F991F6A95E2F78095822385BB2E
:100FE0000895413059F422B381E090E002C0880FA7
:100FF000991F6A95E2F7282B22BB0895442359F4E0
:1010000022B381E090E002C0880F991F6A95E2F751
:101010008095822382BB0895813051F0813030F079
:10102000823041F0833079F080E0089589B303C0C5
:1010300086B301C083B390E002C0959587956A9509
:10104000E2F78170089580B390E002C0959587958E
:101050006A95E2F7817008950F931F93182F83E02C
:1010600067E040E00E94930783E066E040E00E9472
:10107000930782E0612F0E94F70683E065E041E07C
:101080000E94930700ED17E0C8010197F1F783E094
:1010900065E040E00E949307C8010197F1F71F91B6
:1010A0000F91089581E00E942C0808956058829560
:1010B000880F880F807C860F0E942C08089582E09C
:1010C0006FEF0E94E60683E067E041E00E941A07A6
:1010D00083E066E041E00E941A0783E065E041E0BA
:1010E0000E941A0784EF91E028EC30E0F901319773
:1010F000F1F70197D9F788E30E942C0880ED97E07B
:101100000197F1F78CE00E942C0880EA9FE001979C
:10111000F1F781E00E942C0808950F931F93182F78
:1011200083E067E041E00E94930783E066E040E0EF
:101130000E94930782E0612F0E94F70683E065E03A
:1011400041E00E94930700ED17E0C8010197F1F715
:1011500083E065E040E00E949307C8010197F1F742
:101160001F910F9108952F923F924F925F926F922D
:101170007F928F929F92AF92BF92CF92DF92EF9227
:10118000FF920F931F93DF93CF9300D000D0CDB782
:10119000DEB71B012C0120E030E040E050E00E946F
:1011A000A90388233CF457FA509457F850948DE2E1
:1011B0000E948D08C201B10120E030E040E050E023
:1011C0000E941903882311F480E39DC0C201B1017C
:1011D0000E94490069837A838B839C836115710522
:1011E0008105910519F05B016C0106C080E30E9446
:1011F0008D08AA24BB24650181E0682E712C812C06
:10120000912C20C0C401B3012AE030E040E050E05E
:101210000E945A0B7B018C01C601B5010E94850B0F
:101220003B014C016E0C7F1C801E911EC601B50156
:101230002AE030E040E050E00E94850BC901DA016D
:101240005C016D01A114B104C104D104D9F684017B
:10125000730118C0C801B7012AE030E040E050E057
:101260000E94850B862F805D0E948D08C801B70102
:101270002AE030E040E050E00E94850BC901DA012D
:101280007C018D0181E0E816F1040105110511F7DB
:1012900069817A818B819C810E942D049B01AC0124
:1012A000C201B1010E94C1017B018C0120E030E04C
:1012B00040E050E00E94490318163CF58EE20E947F
:1012C0008D08C801B70120E030E040E251E40E94FF
:1012D0001F027B018C010E944900DC01CB01805D73
:1012E0000E948D08C801B70120E030E040E251E4DF
:1012F0000E941F020E944900DC01CB016AE00E94AB
:10130000790B892F805D0E948D080F900F900F90B0
:101310000F90CF91DF911F910F91FF90EF90DF9091
:10132000CF90BF90AF909F908F907F906F905F9085
:101330004F903F902F900895CF93DF93EC0102C020
:101340000E948D0889918823D9F7DF91CF91089564
:1013500086E880BD5298539A549A569A579A599A49
:1013600087E689B910BC08958CB95D9BFECF0895BE
:101370005F9BFECF8CB1089583B7886083BF83B72E
:101380008F7B83BF83B7816083BF83B78D7F83BF2C
:1013900083B7846083BF83B7806183BF83B78F7D4A
:1013A00083BF89B7826089BF8FEF8CBF8FB780689A
:1013B0008FBF08950E945F080E949B060E94B4069A
:1013C0000E94BC090E94A80981E06FEF0E94E60616
:1013D0008CE29AE00E94E106FBCF1F920F920FB6BB
:1013E0000F9211242F933F934F935F936F937F93AB
:1013F0008F939F93AF93BF93EF93FF938CB18233FF
:1014000069F0833318F48133A9F405C0833351F0B4
:10141000843381F40AC081E060E002C081E061E0D1
:1014200041E006C081E060E002C081E061E040E0B0
:101430000E9493075F98FF91EF91BF91AF919F91A9
:101440008F917F916F915F914F913F912F910F906D
:101450000FBE0F901F90189584B195B1A0E0B0E039
:101460009370A070B0708093840190938501A093D5
:101470008601B093870187B18130C9F1813020F0B6
:10148000823009F0BCC072C0609184017091850106
:10149000809186019091870128E833E140E050E097
:1014A0000E945A0B2FEF33E040E050E00E94850B82
:1014B000C901DA018093800190938101A093820198
:1014C000B093830180E060E00E94560880E690E0DF
:1014D0000E949C096091800170918101809182013C
:1014E000909183010E942D040E94B3080895609199
:1014F000840170918501809186019091870128E88F
:1015000033E140E050E00E945A0B2FEF33E040E01F
:1015100050E00E94850BC901DA0180937C01909311
:101520007D01A0937E01B0937F0180918001909115
:101530008101A0918201B0918301815C9241A04020
:10154000B04080F080917C0190917D01A0917E015E
:10155000B0917F01895B9B40A040B04018F081E0D2
:1015600062E044C081E062E040E041C060918401FB
:1015700070918501809186019091870124EF31E07F
:1015800040E050E00E945A0B2FEF33E040E050E083
:101590000E94850BC901DA0180937801909379014B
:1015A000A0937A01B0937B0181E060E00E9456082D
:1015B00085E690E00E949C09609178017091790124
:1015C00080917A0190917B010E942D040E94B308C2
:1015D0008091780190917901A0917A01B0917B017D
:1015E0004597A105B10530F081E065E041E00E943A
:1015F0009307089581E065E040E00E949307089515
:101600001F920F920FB60F9211242F933F934F9377
:101610005F936F937F938F939F93AF93BF93EF935A
:10162000FF938091740190917501A0917601B09122
:1016300077010196A11DB11D8093740190937501EE
:10164000A0937601B0937701809174019091750118
:10165000A0917601B09177014E97A105B105C9F42B
:1016600083E70E94B40987B1813039F0813018F0E6
:10167000823039F405C081E001C082E087B901C041
:1016800017B81092740110927501109276011092A1
:101690007701FF91EF91BF91AF919F918F917F91D2
:1016A0006F915F914F913F912F910F900FBE0F90CF
:1016B0001F901895629FD001739FF001829FE00DEB
:1016C000F11D649FE00DF11D929FF00D839FF00DC1
:1016D000749FF00D659FF00D9927729FB00DE11D6D
:1016E000F91F639FB00DE11DF91FBD01CF0111244A
:1016F0000895991B79E004C0991F961708F0961B6E
:10170000881F7A95C9F780950895A1E21A2EAA1B21
:10171000BB1BFD010DC0AA1FBB1FEE1FFF1FA217A1
:10172000B307E407F50720F0A21BB30BE40BF50B9E
:10173000661F771F881F991F1A9469F76095709527
:10174000809590959B01AC01BD01CF0108952F922A
:101750003F924F925F926F927F928F929F92AF9241
:10176000BF92CF92DF92EF92FF920F931F93CF938E
:10177000DF93CDB7DEB7CA1BDB0B0FB6F894DEBF25
:101780000FBECDBF09942A88398848885F846E844B
:101790007D848C849B84AA84B984C884DF80EE8095
:1017A000FD800C811B81AA81B981CE0FD11D0FB69E
:1017B000F894DEBF0FBECDBFED010895F894FFCFC2
:1017C0004C44523D00746D703D000000000000006C
:1017D00000000001020203030303040404040404E0
:1017E00004040505050505050505050505050505AB
:1017F000050506060606060606060606060606068B
:101800000606060606060606060606060606060678
:10181000060607070707070707070707070707075A
:101820000707070707070707070707070707070748
:101830000707070707070707070707070707070738
:101840000707070707070707070707070707070728
:10185000070708080808080808080808080808080A
:1018600008080808080808080808080808080808F8
:1018700008080808080808080808080808080808E8
:1018800008080808080808080808080808080808D8
:1018900008080808080808080808080808080808C8
:1018A00008080808080808080808080808080808B8
:1018B00008080808080808080808080808080808A8
:1018C0000808080808080808080808080808080898
:0218D000080806
:00000001FF
