:100000000C942A000C9447000C9447000C94470071
:100010000C9447000C9447000C9447000C94470044
:100020000C9447000C9447000C9486080C945F08CD
:100030000C9447000C946D060C9447000C944700F8
:100040000C9447000C9447000C9447000C94470014
:100050000C94470011241FBECFE5D8E0DEBFCDBF12
:1000600011E0A0E6B0E0E6E5FEE102C005900D92E9
:10007000A637B107D9F711E0A6E7B1E001C01D929C
:10008000AF37B107E1F70E945B0B0C94290F0C947A
:100090000000EF92FF920F931F937B018C0120E0F1
:1000A00030E040E05FE40E94190388238CF0C8012F
:1000B000B70120E030E040E05FE40E94C1010E940F
:1000C00049039B01AC01205030404040504806C0DD
:1000D000C801B7010E9449039B01AC01B901CA01E3
:1000E0001F910F91FF90EF900895A0E0B0E0EBE733
:1000F000F0E00C940C0CDC012B01FA019C91923085
:1001000008F439C1EB018881823008F433C194309E
:1001100069F4843009F02FC111969C91119789815F
:10012000981709F428C1AEE6B0E025C1843009F47F
:1001300021C18230A9F4923009F01DC19A01AD01AC
:1001400088E0EA010990AE01E90109929E0181501F
:10015000C1F7E201898111969C918923818308C1AD
:10016000923009F407C112962D903C901397EB0141
:100170008A819B811496AD90BD90CD90DC901797AD
:10018000EC80FD800E811F819101281B390BB90184
:1001900037FF04C066277727621B730B6032710537
:1001A0000CF061C0121613066CF537014801062EDB
:1001B00004C096948794779467940A94D2F721E0C8
:1001C00030E040E050E004C0220F331F441F551FB1
:1001D0006A95D2F721503040404050402E213F21B7
:1001E00040235123211531054105510521F021E01E
:1001F00030E040E050E079018A01E628F72808293C
:1002000019293CC0232BD1F1260E371E350146019A
:10021000062E04C096948794779467940A94D2F734
:1002200021E030E040E050E004C0220F331F441FC3
:10023000551F6A95D2F721503040404050402A2146
:100240003B214C215D21211531054105510521F04E
:1002500021E030E040E050E059016A01A628B728CB
:10026000C828D9280BC0821593052CF01C01AA249C
:10027000BB24650103C0EE24FF24870111969C91E5
:10028000D20111968C91981709F445C0992339F041
:10029000A80197012A193B094C095D0906C0A6016E
:1002A00095012E193F09400B510B57FD08C01182D3
:1002B0003382228224833583468357831DC081E0A5
:1002C00081833382228288279927DC01821B930B4A
:1002D000A40BB50B84839583A683B7830DC0220F2F
:1002E000331F441F551F24833583468357838281E0
:1002F000938101979383828324813581468157813D
:10030000DA01C9010197A109B1098F5F9F4FAF4F72
:10031000BF4328F30BC0918333822282EA0CFB1C7B
:100320000C1D1D1DE482F5820683178383E0808304
:10033000248135814681578157FF1AC0C901AA27F8
:1003400097FDA095BA2F81709070A070B0705695EF
:10035000479537952795822B932BA42BB52B848318
:100360009583A683B7838281938101969383828349
:10037000DF0101C0D201CD01CDB7DEB7E2E10C94BF
:10038000280CA0E2B0E0E7ECF1E00C94180C6983D3
:100390007A838B839C832D833E834F835887E9E048
:1003A000EE2EF12CEC0EFD1ECE010196B7010E943F
:1003B0003A058E010F5E1F4FCE010596B8010E94CF
:1003C0003A058A8991E089278A8BC701B801AE0175
:1003D000475E5F4F0E9475000E946504A096E6E0AC
:1003E0000C94340CA0E2B0E0E8EFF1E00C94180CAF
:1003F00069837A838B839C832D833E834F835887C5
:10040000F9E0EF2EF12CEC0EFD1ECE010196B701A6
:100410000E943A058E010F5E1F4FCE010596B8016E
:100420000E943A05C701B801AE01475E5F4F0E94C6
:1004300075000E946504A096E6E00C94340CA0E2DE
:10044000B0E0E5E2F2E00C940C0C69837A838B83D4
:100450009C832D833E834F835887CE010196BE0136
:10046000675F7F4F0E943A05CE010596BE016F5E21
:100470007F4F0E943A059985923088F089898230B1
:10048000C8F0943019F4823051F404C0843029F457
:10049000923081F48EE690E0C6C0923049F420E0BC
:1004A0009A858A89981321E02A87CE010996BBC0D4
:1004B000823049F420E09A858A89981321E02A8BBA
:1004C000CE014196B0C02D843E844F8458886D88FB
:1004D0007E888F88988CEE24FF248701AA24BB2471
:1004E000650140E050E060E070E0E0E0F0E0C10174
:1004F00081709070892BE9F0E60CF71C081D191D1E
:100500009A01AB012A0D3B1D4C1D5D1D80E090E062
:10051000A0E0B0E0E614F7040805190520F481E036
:1005200090E0A0E0B0E0BA01A901480F591F6A1F8E
:100530007B1FAA0CBB1CCC1CDD1C97FE08C081E0F5
:1005400090E0A0E0B0E0A82AB92ACA2ADB2A3196B6
:10055000E032F10549F0660C771C881C991C569412
:10056000479437942794C3CFFA85EA892B893C892D
:100570008B859C85280F391F2E5F3F4F17C0CA01FE
:1005800081709070892B61F016950795F794E79428
:1005900080E090E0A0E0B0E8E82AF92A0A2B1B2BC3
:1005A00076956795579547952F5F3F4F77FDE7CF36
:1005B0000CC0440F551F661F771F17FD4160EE0CDE
:1005C000FF1C001F111F21503040403090E05907A0
:1005D00090E0690790E4790760F32B8F3C8FDB0193
:1005E000CA018F779070A070B07080349105A1051A
:1005F000B10561F447FD0AC0E114F10401051105DC
:1006000029F0405C5F4F6F4F7F4F40781A8EFE1786
:1006100011F081E08A8F4D8F5E8F6F8F78A383E01A
:10062000898FCE0149960E946504A096E2E10C9460
:10063000280CA8E1B0E0EFE1F3E00C94180C69831A
:100640007A838B839C832D833E834F83588789E0F5
:10065000E82EF12CEC0EFD1ECE010196B7010E9492
:100660003A058E010F5E1F4FCE010596B8010E941C
:100670003A058985823040F08989823028F0C701A7
:10068000B8010E94B20501C08FEF6896E6E00C94B5
:10069000340CACE0B0E0EFE4F3E00C941C0C6983A4
:1006A0007A838B839C83CE010196BE016B5F7F4F63
:1006B0000E943A058D81823061F1823050F18430A0
:1006C00021F48E81882351F12EC02F81388537FD8A
:1006D00020C06E812F3131051CF06623F9F023C054
:1006E0008EE190E0821B930B29853A854B855C85D2
:1006F00004C056954795379527958A95D2F7662376
:10070000B1F050954095309521953F4F4F4F5F4F39
:100710000EC020E030E040E050E009C02FEF3FEF96
:100720004FEF5FE704C020E030E040E050E8B9015F
:10073000CA012C96E2E00C94380CA8E0B0E0E3EAA1
:10074000F3E00C94140C7B018C016115710581059B
:10075000910519F482E0898360C083E089838EE18A
:10076000C82ED12CDC82CB82ED82FE820F831887CB
:10077000C801B7010E941604FC013197F7FF3BC086
:10078000222733272E1B3F0B57016801022E04C07E
:10079000D694C794B794A7940A94D2F740E050E057
:1007A00060E070E081E090E0A0E0B0E004C0880F7D
:1007B000991FAA1FBB1F2A95D2F70197A109B1095A
:1007C0008E219F21A023B1230097A105B10521F01F
:1007D00041E050E060E070E04A295B296C297D2906
:1007E0004D835E836F8378878EE190E08E1B9F0B35
:1007F0009C838B8312C0309781F00E2E04C0EE0CC8
:10080000FF1C001F111F0A94D2F7ED82FE820F8396
:100810001887CE1ADF0ADC82CB821A82CE010196BB
:100820000E9465042896EAE00C94300CEF92FF9247
:100830000F931F937B018C0180E0E81680E0F8069F
:1008400081E0080780E0180788F48FEFE816F104CC
:100850000105110531F028F088E090E0A0E0B0E05B
:1008600017C080E090E0A0E0B0E012C080E0E816A1
:1008700080E0F80680E0080781E0180728F088E1AA
:1008800090E0A0E0B0E004C080E190E0A0E0B0E043
:1008900020E230E040E050E0281B390B4A0B5B0BB4
:1008A00004C016950795F794E7948A95D2F7F70157
:1008B000EA58FF4F8081281B310941095109C901BC
:1008C0001F910F91FF90EF900895DF92EF92FF92AA
:1008D0000F931F93FC01E480F58006811781D1807E
:1008E0008081823048F480E090E0A0E1B0E0E82A26
:1008F000F92A0A2B1B2BA5C0843009F49FC0823033
:1009000021F4EE24FF24870105C0E114F104010560
:10091000110519F4E0E0F0E096C0628173819FEF69
:10092000623879070CF05BC022E83FEF261B370BDB
:100930002A3131052CF020E030E040E050E02AC0C0
:10094000B801A701022E04C0769567955795479583
:100950000A94D2F781E090E0A0E0B0E004C0880FF4
:10096000991FAA1FBB1F2A95D2F70197A109B109A8
:100970008E219F21A023B1230097A105B10521F06D
:1009800081E090E0A0E0B0E09A01AB01282B392B88
:100990004A2B5B2BDA01C9018F779070A070B07081
:1009A00080349105A105B10539F427FF09C0205C09
:1009B0003F4F4F4F5F4F04C0215C3F4F4F4F5F4F42
:1009C000E0E0F0E02030A0E03A07A0E04A07A0E431
:1009D0005A0710F0E1E0F0E079018A0127C06038A1
:1009E000710564F5FB01E158FF4FD801C7018F770E
:1009F0009070A070B07080349105A105B10539F4F4
:100A0000E7FE0DC080E490E0A0E0B0E004C08FE31A
:100A100090E0A0E0B0E0E80EF91E0A1F1B1F17FFD0
:100A200005C016950795F794E794319687E01695DB
:100A30000795F794E7948A95D1F705C0EE24FF2433
:100A40008701EFEFF0E06E2F679566276795902F8F
:100A50009F77D794DD24D7948E2F8695492F462BE8
:100A6000582F5D29B701CA011F910F91FF90EF9098
:100A7000DF900895FC01DB01408151812281622FCA
:100A80006F7770E0221F2227221F9381892F880F02
:100A9000822B282F30E0991F9927991F11969C933C
:100AA000119721153105A9F541155105610571050C
:100AB00011F482E037C082E89FEF13969C938E93E7
:100AC00012979A01AB0167E0220F331F441F551F95
:100AD0006A95D1F783E08C930DC0220F331F441F1A
:100AE000551F12968D919C911397019713969C9385
:100AF0008E931297203080E0380780E0480780E42A
:100B0000580758F314962D933D934D935C93179784
:100B100008952F3F310579F441155105610571059F
:100B200019F484E08C93089564FF03C081E08C93F2
:100B300012C01C9210C02F57304013963C932E9336
:100B4000129783E08C9387E0440F551F661F771F31
:100B50008A95D1F7706414964D935D936D937C9351
:100B6000179708951F93DC01FB019C91923008F4C4
:100B700047C08081823008F443C0943051F411960C
:100B80001C91843099F58181682F70E0611B710997
:100B90003FC0843021F0923031F48230B9F181814C
:100BA000882389F12DC011961C9111978230F1F0A4
:100BB00081811817D9F412962D913C911397828157
:100BC00093818217930794F028173907BCF0149685
:100BD0008D919D910D90BC91A02D248135814681F0
:100BE0005781281739074A075B0718F4112341F08A
:100BF0000AC082179307A407B50740F4112319F020
:100C000061E070E005C06FEF7FEF02C060E070E070
:100C1000CB011F91089580E487B987E886B90895CC
:100C200097B1907E97B997B18770892B87B9369A1B
:100C3000349BFECF349A24B135B1C901089583B9EC
:100C400084E886BF06B607FEFDCF089584EA86BF16
:100C500006B607FEFDCF089584E986BF089516BE47
:100C600011B887E480B908958295880F880F807C39
:100C7000846886BF06B607FEFDCF83B108951FBC0A
:100C800085E08EBD08951EBC08958CB59DB5BC0150
:100C900080E090E008951DBC1CBC08959B01AC0150
:100CA00088E88AB986E880BD84E0220F331F441F9C
:100CB000551F8A95D1F760E074E284EF90E00E94BE
:100CC000EA0B215029B908955D9BFECF8CB9089598
:100CD000809176011092760108951F920F920FB6BF
:100CE0000F9211248F938CB1809376018F910F9086
:100CF0000FBE0F901F9018958234A9F0833418F41A
:100D0000813489F505C08334C9F0843461F521C08C
:100D10002AB381E090E002C0880F991F6A95E2F73C
:100D2000282B2ABB089527B381E090E002C0880FEA
:100D3000991F6A95E2F7282B27BB089524B381E019
:100D400090E002C0880F991F6A95E2F7282B24BB18
:100D5000089521B381E090E002C0880F991F6A9541
:100D6000E2F7282B21BB08958234B1F0833418F4C4
:100D70008134A9F505C08334D9F0843481F524C0C9
:100D80002AB381E090E002C0880F991F6A95E2F7CC
:100D9000809582238ABB089527B381E090E002C04A
:100DA000880F991F6A95E2F78095822387BB089583
:100DB00024B381E090E002C0880F991F6A95E2F7A2
:100DC0008095822384BB089521B381E090E002C026
:100DD000880F991F6A95E2F78095822381BB089559
:100DE000823461F0833418F4813469F405C08334AB
:100DF00039F0843441F406C06ABB089567BB089596
:100E000064BB089561BB0895823479F0833418F48B
:100E10008134C9F405C0833469F08434A1F40FC06F
:100E20008AB3609586238ABB089587B3609586232D
:100E300087BB089584B36095862384BB089581B3EE
:100E40006095862381BB0895823469F0833418F459
:100E5000813429F406C0833441F0843441F020E029
:100E60000FC029B305C026B303C023B301C020B30C
:100E700081E090E002C0880F991F6A95E2F728236D
:100E8000822F0895823469F0833418F4813429F470
:100E900006C0833441F0843481F080E0089589B342
:100EA00003C086B301C083B390E002C095958795D7
:100EB0006A95E2F780958170089580B390E002C052
:100EC000959587956A95E2F78095817008958234AB
:100ED000A9F0833418F4813489F505C08334C9F04E
:100EE000843461F521C02BB381E090E002C0880F0B
:100EF000991F6A95E2F7282B2BBB089528B381E050
:100F000090E002C0880F991F6A95E2F7282B28BB52
:100F1000089525B381E090E002C0880F991F6A957B
:100F2000E2F7282B25BB089522B381E090E002C0B0
:100F3000880F991F6A95E2F7282B22BB0895823407
:100F4000B1F0833418F48134A9F505C08334D9F0A5
:100F5000843481F524C02BB381E090E002C0880F77
:100F6000991F6A95E2F7809582238BBB089528B379
:100F700081E090E002C0880F991F6A95E2F78095A2
:100F8000822388BB089525B381E090E002C0880FDA
:100F9000991F6A95E2F78095822385BB089522B355
:100FA00081E090E002C0880F991F6A95E2F7809572
:100FB000822382BB08958234A9F0833418F48134EB
:100FC00089F505C08334C9F0843461F521C02BB3A1
:100FD00081E090E002C0880F991F6A95E2F7282708
:100FE0002BBB089528B381E090E002C0880F991FC1
:100FF0006A95E2F7282728BB089525B381E090E0A1
:1010000002C0880F991F6A95E2F7282725BB08952B
:1010100022B381E090E002C0880F991F6A95E2F741
:10102000282722BB0895823461F0833418F4813478
:1010300069F405C0833439F0843441F406C06BBBD5
:10104000089568BB089565BB089562BB0895823416
:1010500079F0833418F48134C9F405C0833469F01D
:101060008434A1F40FC08BB3609586238BBB0895A5
:1010700088B36095862388BB089585B360958623E1
:1010800085BB089582B36095862382BB089512BE06
:1010900080E88CBF83E089BF88E483BF83B7836027
:1010A00083BF789408958CBF0895909378018093BE
:1010B0007701089590937A018093790108951F92A2
:1010C0000F920FB60F9211242F933F934F935F937C
:1010D0006F937F938F939F93AF93BF93EF93FF9300
:1010E000E0917901F0917A010995FF91EF91BF911B
:1010F000AF919F918F917F916F915F914F913F91B0
:101100002F910F900FBE0F901F9018951F920F9266
:101110000FB60F9211242F933F934F935F936F93CA
:101120007F938F939F93AF93BF93EF93FF93E09140
:101130007701F09178010995FF91EF91BF91AF91FF
:101140009F918F917F916F915F914F913F912F91DF
:101150000F900FBE0F901F901895282F6AE00E94E5
:10116000DE0B96E0899FC0011124820F08950E9432
:10117000260680ED0E941F0684E00E941F0680E183
:101180000E941F0685E00E941F0685E00E941F0640
:101190000E942C0608950E94260680ED0E941F06DC
:1011A00080E00E941F0681E10E941F0680E10E94EC
:1011B0001F0683E00E941F060E942C0680E49CE923
:1011C0000197F1F70895AF92BF92CF92DF92EF921D
:1011D000FF920F931F937C016B015A010E94260618
:1011E00080ED0E941F0684E00E941F060E942C06CC
:1011F0000E94260681ED0E941F0681E00E943406AF
:10120000182F81E00E943406082F80E00E943406E7
:10121000912F92959F702AEF3FEF929F902D11246E
:10122000910FF7019083902F92959F70929F902D30
:101230001124900FF6019083982F92959F70929FA2
:10124000902D1124980FF50190830E942C061F9178
:101250000F91FF90EF90DF90CF90BF90AF900895E7
:10126000AF92BF92CF92DF92EF92FF920F931F93B4
:101270005C016B017A010E94260680ED0E941F0628
:1012800080E00E941F060E942C060E94260681ED27
:101290000E941F0681E00E943406182F81E00E9400
:1012A0003406082F80E00E943406912F92959F709B
:1012B0002AEF3FEF929F902D1124910FF701908319
:1012C000902F92959F70929F902D1124900FF60170
:1012D0009083982F92959F70929F902D1124980F34
:1012E000F50190830E942C061F910F91FF90EF90C3
:1012F000DF90CF90BF90AF9008950E942F060E947C
:10130000260680ED0E941F0687E00E941F0680E0EF
:101310000E941F060E942C0680E991E00197F1F7D8
:10132000089590E04AE050E00E94430C0895EF9247
:10133000FF921F93182F282F30E0C9019695982F00
:10134000882797958795111F1127111F182BC90101
:1013500082709070E5E0880F991FEA95E1F7182BED
:10136000C9018470907073E0880F991F7A95E1F736
:10137000182BC90188709070880F991F182BC9010C
:101380008071907095958795182BC9018072907027
:1013900043E0959587954A95E1F7182B20743070B6
:1013A00095E0359527959A95E1F7122B80E4E82E84
:1013B0008FE1F82EC7010197F1F782E465E00E9402
:1013C0006707C7010197F1F782E464E00E946707AD
:1013D000C7010197F1F7612F6F70606382E40E948B
:1013E0001308C7010197F1F782E464E00E949F07A8
:1013F000C7010197F1F782E465E00E946707C70122
:101400000197F1F782E464E00E946707C701019742
:10141000F1F712951F70106382E4612F0E94130888
:10142000C7010197F1F782E464E00E949F071F91D2
:10143000FF90EF9008951F93CF93DF93EC0110E09E
:1014400003C00E9497091F5FFE01E10FF11D80811B
:101450008823B9F7DF91CF911F9108950F93CF9310
:10146000DF93282F30E0A9015695542F4427579534
:101470004795082F001F0027001F042BC901827009
:10148000907075E0880F991F7A95E1F7082BC901D4
:101490008470907063E0880F991F6A95E1F7082BBC
:1014A000C90188709070880F991F082BC90180713D
:1014B000907095958795082BC90180729070B3E064
:1014C00095958795BA95E1F7082B20743070A5E0C3
:1014D00035952795AA95E1F7022B84EF91E020E955
:1014E00031E0F9013197F1F70197D9F782E465E02E
:1014F0000E949F07C0E4DFE1CE010197F1F782E48B
:1015000064E00E946707CE010197F1F7602F6F70CA
:10151000606182E40E941308CE010197F1F782E432
:1015200064E00E949F07CE010197F1F782E465E035
:101530000E949F07CE010197F1F782E464E00E94C8
:101540006707CE010197F1F702950F70006182E401
:10155000602F0E941308CE010197F1F782E464E046
:101560000E949F07CE010197F1F7DF91CF910F9174
:10157000089581E00E942E0A0895813029F082307A
:1015800011F060E001C0605C862F80680E942E0A26
:1015900008950F931F9382E464E00E947C0682E426
:1015A00065E00E947C0682E460E00E947C0682E4A2
:1015B00061E00E947C0682E462E00E947C0682E494
:1015C00063E00E947C0600E41FE1C8010197F1F787
:1015D00082E00E942E0AC8010197F1F788E20E947A
:1015E0002E0AC8010197F1F781E00E942E0AC80176
:1015F0000197F1F78CE00E942E0A84EF91E020E938
:1016000031E0F9013197F1F70197D9F71F910F9167
:10161000089581E00E94100608950E940B06089527
:101620000E94680608950E946406089560E875E2C5
:1016300080E090E00E944E060895EF92FF920F9393
:101640001F938F9A979A80E58A95F1F79798869BD2
:10165000FECF0E943F068699FECF0E9443060E945D
:1016600045060E949D032DEB37E346E858E30E94B0
:101670001F0220E034EC46E057E40E941F027B0189
:101680008C010E944B06C801B7010E9449009B01D2
:10169000AC015695479537952795C9011F910F9134
:1016A000FF90EF90089585B3836285BB089585B35D
:1016B0008C7D85BB0895CF92DF92EF92FF920F93BE
:1016C0001F93DF93CF93CDB7DEB72F970FB6F89464
:1016D000DEBF0FBECDBF83E684BB8A9A0E94C90AD3
:1016E0000E94B90A0E94470887E59BE00E945508BE
:1016F00083E59BE00E945A080E940D0B0E94160B86
:1017000020E737E17E010894E11CF11C80E6C82E39
:1017100080E0D82E00E911E005C0C8010197F1F77B
:101720002150304021153105C1F70E94B90A0E94AD
:101730001D0B90937C0180937B0100D000D000D0E2
:10174000EDB7FEB73196ADB7BEB71296FC92EE92EA
:101750001197D382C282958384830E94640C8DB7D3
:101760009EB706960FB6F8949EBF0FBE8DBFC701F9
:101770000E941B0A80917B0190917C0144974CF45C
:10178000929A80E29EE4F8013197F1F70197D9F738
:1017900092980E94090B90937E0180937D01A1E0B5
:1017A00080399A0714F48FEF04C08059914019F0E2
:1017B00085E00E94530820E737E1AFCF991B79E01D
:1017C00004C0991F961708F0961B881F7A95C9F7D1
:1017D00080950895A1E21A2EAA1BBB1BFD010DC026
:1017E000AA1FBB1FEE1FFF1FA217B307E407F507D1
:1017F00020F0A21BB30BE40BF50B661F771F881FAD
:10180000991F1A9469F760957095809590959B0142
:10181000AC01BD01CF0108952F923F924F925F928C
:101820006F927F928F929F92AF92BF92CF92DF92F0
:10183000EF92FF920F931F93CF93DF93CDB7DEB755
:10184000CA1BDB0B0FB6F894DEBF0FBECDBF0994E9
:101850002A88398848885F846E847D848C849B8440
:10186000AA84B984C884DF80EE80FD800C811B814E
:10187000AA81B981CE0FD11D0FB6F894DEBF0FBE7D
:10188000CDBFED010895FB019F01E8944230C4F003
:101890004532B4F44A3029F497FB1EF490958195B3
:1018A0009F4F642F77270E94150F805D8A330CF0BD
:1018B000895D8193CB010097A1F716F45DE2519306
:1018C0001082C9010C947B0EAEE0B0E0EAE6FCE0C9
:1018D0000C941A0C0D891E8986E08C831A83098367
:1018E0008FEF9FE79E838D839E01275E3F4FCE0142
:1018F00001966F89788DA9010E94880C2F81388507
:10190000020F131FF80110822E96E4E00C94360C9F
:10191000ABE0B0E0EEE8FCE00C940C0C3C012B01D9
:101920005A01FC0117821682838181FD03C06FEF8B
:101930007FEFC6C19AE0892E1E010894211C311C3C
:10194000F3012381F20123FD859123FF81912F0172
:10195000882309F4B2C1853239F423FD859123FF30
:1019600081912F01853229F490E0B3010E948B0E02
:10197000E7CF982FFF24EE249924FFE1FF15D0F044
:101980009B3269F09C3228F4903259F0933291F4F2
:101990000EC09D3249F0903369F441E024C052E01A
:1019A000F52A84E0F82A28C098E0F92A25C0E0E169
:1019B000FE2A22C0F7FC29C0892F80538A3070F498
:1019C000F6FE05C0989C902C1124980E15C0E89C3A
:1019D000E02C1124E80EF0E2FF2A0EC09E3229F41A
:1019E000F6FC6BC140E4F42A07C09C3619F450E8B9
:1019F000F52A02C0983649F4F20123FD959123FFA0
:101A000091912F01992309F0B8CF892F8554833004
:101A100018F08052833038F444E050E0A40EB51E34
:101A20005FE359830FC0933631F0933779F09335E4
:101A300009F056C020C0F5018081898342E050E062
:101A4000A40EB51E610101E010E012C0F501C080D6
:101A5000D180F6FC03C06FEF7FEF02C0692D70E00C
:101A600042E050E0A40EB51EC6010E94700E8C012B
:101A70005FE7F52214C0F501C080D180F6FC03C0F9
:101A80006FEF7FEF02C0692D70E042E050E0A40EDE
:101A9000B51EC6010E94650E8C0150E8F52AF3FEC2
:101AA00007C01AC080E290E0B3010E948B0EEA9456
:101AB0008E2D90E008171907A8F30EC0F601F7FC69
:101AC0008591F7FE81916F0190E0B3010E948B0E2A
:101AD000E110EA94015010400115110579F7EAC0B0
:101AE000943611F0993669F5F7FE08C0F5012081AA
:101AF00031814281538184E090E00AC0F501808108
:101B000091819C01442737FD4095542F82E090E05D
:101B1000A80EB91E9FE6F92257FF09C050954095BF
:101B2000309521953F4F4F4F5F4FE0E8FE2ACA01A5
:101B3000B901A1012AE030E00E94B70ED82ED218D8
:101B400040C0953729F41F2D1F7E2AE030E01DC0CC
:101B50001F2D197F9F3661F0903720F4983509F0DA
:101B6000ACC00FC0903739F0983709F0A6C004C058
:101B700028E030E00AC0106114FD146020E130E07C
:101B800004C014FD166020E132E017FF08C0F50123
:101B9000608171818281938144E050E008C0F50149
:101BA00080819181BC0180E090E042E050E0A40E91
:101BB000B51EA1010E94B70ED82ED2188FE7F82EBD
:101BC000F122F6FE0BC05EEFF522D91438F4F4FED4
:101BD00007C0F2FC05C08FEEF82202C01D2D01C027
:101BE000192DF4FE0DC0FE01ED0DF11D8081803335
:101BF00019F499EEF92208C01F5FF2FE05C003C078
:101C00008F2D867809F01F5F0F2DF3FC14C0F0FEB6
:101C10000FC01E1510F09D2C0BC09D2C9E0C911A10
:101C20001E2D06C080E290E0B3010E948B0E1F5F64
:101C30001E15C0F304C01E1510F4E11A01C0EE24F5
:101C400004FF0FC080E390E0B3010E948B0E02FFFF
:101C50001DC001FD03C088E790E00EC088E590E05C
:101C60000BC0802F867891F001FF02C08BE201C08B
:101C700080E2F7FC8DE290E0B3010E948B0E06C07B
:101C800080E390E0B3010E948B0E9A94D914C0F3C4
:101C9000DA94F101ED0DF11D808190E0B3010E9415
:101CA0008B0EDD20A9F706C080E290E0B3010E9410
:101CB0008B0EEA94EE20C1F743CEF3016681778163
:101CC000CB012B96E2E10C94280CFC0105906150AD
:101CD00070400110D8F7809590958E0F9F1F089542
:101CE000FC016150704001900110D8F780959095EB
:101CF0008E0F9F1F0895DC01FC01672F71917723E0
:101D0000E1F7329704C07C916D9370836291AE17B6
:101D1000BF07C8F308950F931F93CF93DF938C01F0
:101D2000EB018B8181FF1BC082FF0DC02E813F81A3
:101D30008C819D812817390764F4E881F98101932A
:101D4000F983E88306C0E885F985802F0995892BFA
:101D500031F48E819F8101969F838E8302C00FEFA5
:101D60001FEFC801DF91CF911F910F910895FA01E4
:101D7000AA27283051F1203181F1E8946F936E7FCA
:101D80006E5F7F4F8F4F9F4FAF4FB1E03ED0B4E0BB
:101D90003CD0670F781F891F9A1FA11D680F791FFC
:101DA0008A1F911DA11D6A0F711D811D911DA11D0D
:101DB00020D009F468943F912AE0269F112430191D
:101DC000305D3193DEF6CF010895462F4770405DB8
:101DD0004193B3E00FD0C9F7F6CF462F4F70405D67
:101DE0004A3318F0495D31FD4052419302D0A9F7C2
:101DF000EACFB4E0A6959795879577956795BA95BC
:101E0000C9F700976105710508959B01AC010A2E81
:101E100006945795479537952795BA95C9F7620F58
:101E2000731F841F951FA01D0895AA1BBB1B51E1A2
:101E300007C0AA1FBB1FA617B70710F0A61BB70B3A
:101E4000881F991F5A95A9F780959095BC01CD01DF
:061E50000895F894FFCF95
:101E560064697374616E6365203D2025640000002B
:101E66000000000000000001020203030303040453
:101E76000404040404040505050505050505050512
:101E860005050505050506060606060606060606F2
:101E960006060606060606060606060606060606DC
:101EA60006060606060607070707070707070707C2
:101EB60007070707070707070707070707070707AC
:101EC600070707070707070707070707070707079C
:101ED600070707070707070707070707070707078C
:101EE6000707070707070808080808080808080872
:101EF600080808080808080808080808080808085C
:101F0600080808080808080808080808080808084B
:101F1600080808080808080808080808080808083B
:101F2600080808080808080808080808080808082B
:101F3600080808080808080808080808080808081B
:101F4600080808080808080808080808080808080B
:101F560008080808080808080808080808080808FB
:061F660008080808080845
:00000001FF
